{
  "_format": "hh-sol-artifact-1",
  "contractName": "IocFactory",
  "sourceName": "contracts/IocFactory.sol",
  "abi": [
    {
      "inputs": [
        {
          "internalType": "address",
          "name": "_oracleAddress",
          "type": "address"
        }
      ],
      "stateMutability": "nonpayable",
      "type": "constructor"
    },
    {
      "anonymous": false,
      "inputs": [
        {
          "indexed": false,
          "internalType": "address",
          "name": "iocAddress",
          "type": "address"
        },
        {
          "indexed": false,
          "internalType": "address",
          "name": "owner",
          "type": "address"
        },
        {
          "indexed": false,
          "internalType": "string",
          "name": "hash",
          "type": "string"
        },
        {
          "indexed": false,
          "internalType": "uint256",
          "name": "price",
          "type": "uint256"
        }
      ],
      "name": "IocPublished",
      "type": "event"
    },
    {
      "inputs": [],
      "name": "getPublishedIocs",
      "outputs": [
        {
          "internalType": "address[]",
          "name": "",
          "type": "address[]"
        }
      ],
      "stateMutability": "view",
      "type": "function"
    },
    {
      "inputs": [],
      "name": "oracleAddress",
      "outputs": [
        {
          "internalType": "address",
          "name": "",
          "type": "address"
        }
      ],
      "stateMutability": "view",
      "type": "function"
    },
    {
      "inputs": [
        {
          "internalType": "string",
          "name": "hash",
          "type": "string"
        },
        {
          "internalType": "string",
          "name": "_fileCid",
          "type": "string"
        },
        {
          "internalType": "uint256",
          "name": "price",
          "type": "uint256"
        }
      ],
      "name": "publishIoc",
      "outputs": [],
      "stateMutability": "nonpayable",
      "type": "function"
    },
    {
      "inputs": [
        {
          "internalType": "uint256",
          "name": "",
          "type": "uint256"
        }
      ],
      "name": "publishedIocs",
      "outputs": [
        {
          "internalType": "address",
          "name": "",
          "type": "address"
        }
      ],
      "stateMutability": "view",
      "type": "function"
    }
  ],
  "bytecode": "0x608060405234801561001057600080fd5b50604051611d31380380611d31833981810160405281019061003291906100dc565b80600160006101000a81548173ffffffffffffffffffffffffffffffffffffffff021916908373ffffffffffffffffffffffffffffffffffffffff16021790555050610109565b600080fd5b600073ffffffffffffffffffffffffffffffffffffffff82169050919050565b60006100a98261007e565b9050919050565b6100b98161009e565b81146100c457600080fd5b50565b6000815190506100d6816100b0565b92915050565b6000602082840312156100f2576100f1610079565b5b6000610100848285016100c7565b91505092915050565b611c19806101186000396000f3fe608060405234801561001057600080fd5b506004361061004c5760003560e01c8063270ad6061461005157806349f20564146100815780635dca28801461009d578063a89ae4ba146100bb575b600080fd5b61006b6004803603810190610066919061032b565b6100d9565b6040516100789190610399565b60405180910390f35b61009b600480360381019061009691906104fa565b610118565b005b6100a5610220565b6040516100b29190610643565b60405180910390f35b6100c36102ae565b6040516100d09190610399565b60405180910390f35b600081815481106100e957600080fd5b906000526020600020016000915054906101000a900473ffffffffffffffffffffffffffffffffffffffff1681565b600033848484600160009054906101000a900473ffffffffffffffffffffffffffffffffffffffff1660405161014d906102d4565b61015b9594939291906106f3565b604051809103906000f080158015610177573d6000803e3d6000fd5b5090506000819080600181540180825580915050600190039060005260206000200160009091909190916101000a81548173ffffffffffffffffffffffffffffffffffffffff021916908373ffffffffffffffffffffffffffffffffffffffff1602179055507f1cd7e868f3482a312ece1d5aca9e68323f1f427993df7e616990f4c542037772813386856040516102129493929190610754565b60405180910390a150505050565b606060008054806020026020016040519081016040528092919081815260200182805480156102a457602002820191906000526020600020905b8160009054906101000a900473ffffffffffffffffffffffffffffffffffffffff1673ffffffffffffffffffffffffffffffffffffffff168152602001906001019080831161025a575b5050505050905090565b600160009054906101000a900473ffffffffffffffffffffffffffffffffffffffff1681565b611443806107a183390190565b6000604051905090565b600080fd5b600080fd5b6000819050919050565b610308816102f5565b811461031357600080fd5b50565b600081359050610325816102ff565b92915050565b600060208284031215610341576103406102eb565b5b600061034f84828501610316565b91505092915050565b600073ffffffffffffffffffffffffffffffffffffffff82169050919050565b600061038382610358565b9050919050565b61039381610378565b82525050565b60006020820190506103ae600083018461038a565b92915050565b600080fd5b600080fd5b6000601f19601f8301169050919050565b7f4e487b7100000000000000000000000000000000000000000000000000000000600052604160045260246000fd5b610407826103be565b810181811067ffffffffffffffff82111715610426576104256103cf565b5b80604052505050565b60006104396102e1565b905061044582826103fe565b919050565b600067ffffffffffffffff821115610465576104646103cf565b5b61046e826103be565b9050602081019050919050565b82818337600083830152505050565b600061049d6104988461044a565b61042f565b9050828152602081018484840111156104b9576104b86103b9565b5b6104c484828561047b565b509392505050565b600082601f8301126104e1576104e06103b4565b5b81356104f184826020860161048a565b91505092915050565b600080600060608486031215610513576105126102eb565b5b600084013567ffffffffffffffff811115610531576105306102f0565b5b61053d868287016104cc565b935050602084013567ffffffffffffffff81111561055e5761055d6102f0565b5b61056a868287016104cc565b925050604061057b86828701610316565b9150509250925092565b600081519050919050565b600082825260208201905092915050565b6000819050602082019050919050565b6105ba81610378565b82525050565b60006105cc83836105b1565b60208301905092915050565b6000602082019050919050565b60006105f082610585565b6105fa8185610590565b9350610605836105a1565b8060005b8381101561063657815161061d88826105c0565b9750610628836105d8565b925050600181019050610609565b5085935050505092915050565b6000602082019050818103600083015261065d81846105e5565b905092915050565b600081519050919050565b600082825260208201905092915050565b60005b8381101561069f578082015181840152602081019050610684565b60008484015250505050565b60006106b682610665565b6106c08185610670565b93506106d0818560208601610681565b6106d9816103be565b840191505092915050565b6106ed816102f5565b82525050565b600060a082019050610708600083018861038a565b818103602083015261071a81876106ab565b9050818103604083015261072e81866106ab565b905061073d60608301856106e4565b61074a608083018461038a565b9695505050505050565b6000608082019050610769600083018761038a565b610776602083018661038a565b818103604083015261078881856106ab565b905061079760608301846106e4565b9594505050505056fe608060405234801561001057600080fd5b5060405161144338038061144383398181016040528101906100329190610391565b600073ffffffffffffffffffffffffffffffffffffffff168573ffffffffffffffffffffffffffffffffffffffff16036100a1576040517f08c379a0000000000000000000000000000000000000000000000000000000008152600401610098906104a1565b60405180910390fd5b846000806101000a81548173ffffffffffffffffffffffffffffffffffffffff021916908373ffffffffffffffffffffffffffffffffffffffff16021790555083600190816100f091906106d8565b50826002908161010091906106d8565b508160038190555060006004819055508073ffffffffffffffffffffffffffffffffffffffff1663a179d1c23060016040518363ffffffff1660e01b815260040161014c92919061083d565b600060405180830381600087803b15801561016657600080fd5b505af115801561017a573d6000803e3d6000fd5b50505050505050505061086d565b6000604051905090565b600080fd5b600080fd5b600073ffffffffffffffffffffffffffffffffffffffff82169050919050565b60006101c78261019c565b9050919050565b6101d7816101bc565b81146101e257600080fd5b50565b6000815190506101f4816101ce565b92915050565b600080fd5b600080fd5b6000601f19601f8301169050919050565b7f4e487b7100000000000000000000000000000000000000000000000000000000600052604160045260246000fd5b61024d82610204565b810181811067ffffffffffffffff8211171561026c5761026b610215565b5b80604052505050565b600061027f610188565b905061028b8282610244565b919050565b600067ffffffffffffffff8211156102ab576102aa610215565b5b6102b482610204565b9050602081019050919050565b60005b838110156102df5780820151818401526020810190506102c4565b60008484015250505050565b60006102fe6102f984610290565b610275565b90508281526020810184848401111561031a576103196101ff565b5b6103258482856102c1565b509392505050565b600082601f830112610342576103416101fa565b5b81516103528482602086016102eb565b91505092915050565b6000819050919050565b61036e8161035b565b811461037957600080fd5b50565b60008151905061038b81610365565b92915050565b600080600080600060a086880312156103ad576103ac610192565b5b60006103bb888289016101e5565b955050602086015167ffffffffffffffff8111156103dc576103db610197565b5b6103e88882890161032d565b945050604086015167ffffffffffffffff81111561040957610408610197565b5b6104158882890161032d565b93505060606104268882890161037c565b9250506080610437888289016101e5565b9150509295509295909350565b600082825260208201905092915050565b7f596f75206d7573742070726f7669646520616e206f776e657200000000000000600082015250565b600061048b601983610444565b915061049682610455565b602082019050919050565b600060208201905081810360008301526104ba8161047e565b9050919050565b600081519050919050565b7f4e487b7100000000000000000000000000000000000000000000000000000000600052602260045260246000fd5b6000600282049050600182168061051357607f821691505b602082108103610526576105256104cc565b5b50919050565b60008190508160005260206000209050919050565b60006020601f8301049050919050565b600082821b905092915050565b60006008830261058e7fffffffffffffffffffffffffffffffffffffffffffffffffffffffffffffffff82610551565b6105988683610551565b95508019841693508086168417925050509392505050565b6000819050919050565b60006105d56105d06105cb8461035b565b6105b0565b61035b565b9050919050565b6000819050919050565b6105ef836105ba565b6106036105fb826105dc565b84845461055e565b825550505050565b600090565b61061861060b565b6106238184846105e6565b505050565b5b818110156106475761063c600082610610565b600181019050610629565b5050565b601f82111561068c5761065d8161052c565b61066684610541565b81016020851015610675578190505b61068961068185610541565b830182610628565b50505b505050565b600082821c905092915050565b60006106af60001984600802610691565b1980831691505092915050565b60006106c8838361069e565b9150826002028217905092915050565b6106e1826104c1565b67ffffffffffffffff8111156106fa576106f9610215565b5b61070482546104fb565b61070f82828561064b565b600060209050601f8311600181146107425760008415610730578287015190505b61073a85826106bc565b8655506107a2565b601f1984166107508661052c565b60005b8281101561077857848901518255600182019150602085019450602081019050610753565b868310156107955784890151610791601f89168261069e565b8355505b6001600288020188555050505b505050505050565b6107b3816101bc565b82525050565b600081546107c6816104fb565b6107d08186610444565b945060018216600081146107eb576001811461080157610834565b60ff198316865281151560200286019350610834565b61080a8561052c565b60005b8381101561082c5781548189015260018201915060208101905061080d565b808801955050505b50505092915050565b600060408201905061085260008301856107aa565b818103602083015261086481846107b9565b90509392505050565b610bc78061087c6000396000f3fe6080604052600436106100865760003560e01c80632b85ed9c116100595780632b85ed9c1461013557806364edfbf01461016057806380007e831461016a5780638da5cb5b14610195578063a035b1fe146101c057610086565b806309bd5a601461008b578063105535b6146100b657806311db3126146100e15780631a3460441461010a575b600080fd5b34801561009757600080fd5b506100a06101eb565b6040516100ad9190610718565b60405180910390f35b3480156100c257600080fd5b506100cb610279565b6040516100d89190610718565b60405180910390f35b3480156100ed57600080fd5b5061010860048036038101906101039190610777565b610307565b005b34801561011657600080fd5b5061011f610387565b60405161012c91906107b3565b60405180910390f35b34801561014157600080fd5b5061014a61039a565b60405161015791906107e7565b60405180910390f35b6101686103a0565b005b34801561017657600080fd5b5061017f61064b565b60405161018c91906107b3565b60405180910390f35b3480156101a157600080fd5b506101aa61065e565b6040516101b79190610843565b60405180910390f35b3480156101cc57600080fd5b506101d5610682565b6040516101e291906107e7565b60405180910390f35b600180546101f89061088d565b80601f01602080910402602001604051908101604052809291908181526020018280546102249061088d565b80156102715780601f1061024657610100808354040283529160200191610271565b820191906000526020600020905b81548152906001019060200180831161025457829003601f168201915b505050505081565b600280546102869061088d565b80601f01602080910402602001604051908101604052809291908181526020018280546102b29061088d565b80156102ff5780601f106102d4576101008083540402835291602001916102ff565b820191906000526020600020905b8154815290600101906020018083116102e257829003601f168201915b505050505081565b6001600560006101000a81548160ff02191690831515021790555080600560016101000a81548160ff0219169083151502179055507ffbd298ad262060c542dc22d25f1d860e7854185a3f08eeadcb168c50e8b8327b30600560019054906101000a900460ff1660405161037c9291906108be565b60405180910390a150565b600560019054906101000a900460ff1681565b60045481565b60008054906101000a900473ffffffffffffffffffffffffffffffffffffffff1673ffffffffffffffffffffffffffffffffffffffff163373ffffffffffffffffffffffffffffffffffffffff160361042e576040517f08c379a000000000000000000000000000000000000000000000000000000000815260040161042590610933565b60405180910390fd5b600354341015610473576040517f08c379a000000000000000000000000000000000000000000000000000000000815260040161046a9061099f565b60405180910390fd5b3273ffffffffffffffffffffffffffffffffffffffff163373ffffffffffffffffffffffffffffffffffffffff16146104e1576040517f08c379a00000000000000000000000000000000000000000000000000000000081526004016104d890610a31565b60405180910390fd5b600560009054906101000a900460ff16610530576040517f08c379a000000000000000000000000000000000000000000000000000000000815260040161052790610a9d565b60405180910390fd5b6004600081548092919061054390610aec565b91905055506003543411156105a7573373ffffffffffffffffffffffffffffffffffffffff166108fc6003543461057a9190610b34565b9081150290604051600060405180830381858888f193505050501580156105a5573d6000803e3d6000fd5b505b60008054906101000a900473ffffffffffffffffffffffffffffffffffffffff1673ffffffffffffffffffffffffffffffffffffffff166108fc6003549081150290604051600060405180830381858888f1935050505015801561060f573d6000803e3d6000fd5b507f6551c004ddd37a472463d608be57c2de820241aecc8aa52249935b82896d30183033604051610641929190610b68565b60405180910390a1565b600560009054906101000a900460ff1681565b60008054906101000a900473ffffffffffffffffffffffffffffffffffffffff1681565b60035481565b600081519050919050565b600082825260208201905092915050565b60005b838110156106c25780820151818401526020810190506106a7565b60008484015250505050565b6000601f19601f8301169050919050565b60006106ea82610688565b6106f48185610693565b93506107048185602086016106a4565b61070d816106ce565b840191505092915050565b6000602082019050818103600083015261073281846106df565b905092915050565b600080fd5b60008115159050919050565b6107548161073f565b811461075f57600080fd5b50565b6000813590506107718161074b565b92915050565b60006020828403121561078d5761078c61073a565b5b600061079b84828501610762565b91505092915050565b6107ad8161073f565b82525050565b60006020820190506107c860008301846107a4565b92915050565b6000819050919050565b6107e1816107ce565b82525050565b60006020820190506107fc60008301846107d8565b92915050565b600073ffffffffffffffffffffffffffffffffffffffff82169050919050565b600061082d82610802565b9050919050565b61083d81610822565b82525050565b60006020820190506108586000830184610834565b92915050565b7f4e487b7100000000000000000000000000000000000000000000000000000000600052602260045260246000fd5b600060028204905060018216806108a557607f821691505b6020821081036108b8576108b761085e565b5b50919050565b60006040820190506108d36000830185610834565b6108e060208301846107a4565b9392505050565b7f596f752063616e27742062757920796f7572206974656d730000000000000000600082015250565b600061091d601883610693565b9150610928826108e7565b602082019050919050565b6000602082019050818103600083015261094c81610910565b9050919050565b7f596f75206d75737420706179206174206c656173742074686520707269636500600082015250565b6000610989601f83610693565b915061099482610953565b602082019050919050565b600060208201905081810360008301526109b88161097c565b9050919050565b7f436f6e74726163747320617265206e6f7420616c6c6f77656420746f2070757260008201527f6368617365000000000000000000000000000000000000000000000000000000602082015250565b6000610a1b602583610693565b9150610a26826109bf565b604082019050919050565b60006020820190508181036000830152610a4a81610a0e565b9050919050565b7f4974656d206d7573742062652076657269666965640000000000000000000000600082015250565b6000610a87601583610693565b9150610a9282610a51565b602082019050919050565b60006020820190508181036000830152610ab681610a7a565b9050919050565b7f4e487b7100000000000000000000000000000000000000000000000000000000600052601160045260246000fd5b6000610af7826107ce565b91507fffffffffffffffffffffffffffffffffffffffffffffffffffffffffffffffff8203610b2957610b28610abd565b5b600182019050919050565b6000610b3f826107ce565b9150610b4a836107ce565b9250828203905081811115610b6257610b61610abd565b5b92915050565b6000604082019050610b7d6000830185610834565b610b8a6020830184610834565b939250505056fea2646970667358221220d33f2c0f32915600bc20fa32a329536a4fb11d7b9bb83cc617e5e58d632b4ae564736f6c634300081c0033a26469706673582212203cf7453745c5cacf812f0c36e7b94baaa5b229ec389880cdd32bbfb43ad5eb4f64736f6c634300081c0033",
  "linkReferences": {},
  "deployedLinkReferences": {}
}