{
  "_format": "hh-sol-artifact-1",
  "contractName": "IocFactory",
  "sourceName": "contracts/IocFactory.sol",
  "abi": [
    {
      "inputs": [
        {
          "internalType": "address",
          "name": "_oracleAddress",
          "type": "address"
        }
      ],
      "stateMutability": "nonpayable",
      "type": "constructor"
    },
    {
      "anonymous": false,
      "inputs": [
        {
          "indexed": false,
          "internalType": "address",
          "name": "iocAddress",
          "type": "address"
        },
        {
          "indexed": false,
          "internalType": "address",
          "name": "owner",
          "type": "address"
        },
        {
          "indexed": false,
          "internalType": "bytes32",
          "name": "hash",
          "type": "bytes32"
        },
        {
          "indexed": false,
          "internalType": "uint256",
          "name": "price",
          "type": "uint256"
        }
      ],
      "name": "IocPublished",
      "type": "event"
    },
    {
      "inputs": [],
      "name": "getPublishedIocs",
      "outputs": [
        {
          "internalType": "address[]",
          "name": "",
          "type": "address[]"
        }
      ],
      "stateMutability": "view",
      "type": "function"
    },
    {
      "inputs": [],
      "name": "oracleAddress",
      "outputs": [
        {
          "internalType": "address",
          "name": "",
          "type": "address"
        }
      ],
      "stateMutability": "view",
      "type": "function"
    },
    {
      "inputs": [
        {
          "internalType": "bytes32",
          "name": "hash",
          "type": "bytes32"
        },
        {
          "internalType": "string",
          "name": "_fileCid",
          "type": "string"
        },
        {
          "internalType": "uint256",
          "name": "price",
          "type": "uint256"
        }
      ],
      "name": "publishIoc",
      "outputs": [],
      "stateMutability": "nonpayable",
      "type": "function"
    },
    {
      "inputs": [
        {
          "internalType": "uint256",
          "name": "",
          "type": "uint256"
        }
      ],
      "name": "publishedIocs",
      "outputs": [
        {
          "internalType": "address",
          "name": "",
          "type": "address"
        }
      ],
      "stateMutability": "view",
      "type": "function"
    }
  ],
  "bytecode": "0x608060405234801561001057600080fd5b50604051611c8e380380611c8e833981810160405281019061003291906100dc565b80600160006101000a81548173ffffffffffffffffffffffffffffffffffffffff021916908373ffffffffffffffffffffffffffffffffffffffff16021790555050610109565b600080fd5b600073ffffffffffffffffffffffffffffffffffffffff82169050919050565b60006100a98261007e565b9050919050565b6100b98161009e565b81146100c457600080fd5b50565b6000815190506100d6816100b0565b92915050565b6000602082840312156100f2576100f1610079565b5b6000610100848285016100c7565b91505092915050565b611b76806101186000396000f3fe608060405234801561001057600080fd5b506004361061004c5760003560e01c8063270ad606146100515780635dca2880146100815780638b65d0d31461009f578063a89ae4ba146100bb575b600080fd5b61006b6004803603810190610066919061032b565b6100d9565b6040516100789190610399565b60405180910390f35b610089610118565b6040516100969190610472565b60405180910390f35b6100b960048036038101906100b49190610610565b6101a6565b005b6100c36102ae565b6040516100d09190610399565b60405180910390f35b600081815481106100e957600080fd5b906000526020600020016000915054906101000a900473ffffffffffffffffffffffffffffffffffffffff1681565b6060600080548060200260200160405190810160405280929190818152602001828054801561019c57602002820191906000526020600020905b8160009054906101000a900473ffffffffffffffffffffffffffffffffffffffff1673ffffffffffffffffffffffffffffffffffffffff1681526020019060010190808311610152575b5050505050905090565b600033848484600160009054906101000a900473ffffffffffffffffffffffffffffffffffffffff166040516101db906102d4565b6101e995949392919061071c565b604051809103906000f080158015610205573d6000803e3d6000fd5b5090506000819080600181540180825580915050600190039060005260206000200160009091909190916101000a81548173ffffffffffffffffffffffffffffffffffffffff021916908373ffffffffffffffffffffffffffffffffffffffff1602179055507f0bcf195a0d6bd6754158adb6d2e34468686d21e5c29b6a6bfd39bcb20ebb364f813386856040516102a09493929190610776565b60405180910390a150505050565b600160009054906101000a900473ffffffffffffffffffffffffffffffffffffffff1681565b611385806107bc83390190565b6000604051905090565b600080fd5b600080fd5b6000819050919050565b610308816102f5565b811461031357600080fd5b50565b600081359050610325816102ff565b92915050565b600060208284031215610341576103406102eb565b5b600061034f84828501610316565b91505092915050565b600073ffffffffffffffffffffffffffffffffffffffff82169050919050565b600061038382610358565b9050919050565b61039381610378565b82525050565b60006020820190506103ae600083018461038a565b92915050565b600081519050919050565b600082825260208201905092915050565b6000819050602082019050919050565b6103e981610378565b82525050565b60006103fb83836103e0565b60208301905092915050565b6000602082019050919050565b600061041f826103b4565b61042981856103bf565b9350610434836103d0565b8060005b8381101561046557815161044c88826103ef565b975061045783610407565b925050600181019050610438565b5085935050505092915050565b6000602082019050818103600083015261048c8184610414565b905092915050565b6000819050919050565b6104a781610494565b81146104b257600080fd5b50565b6000813590506104c48161049e565b92915050565b600080fd5b600080fd5b6000601f19601f8301169050919050565b7f4e487b7100000000000000000000000000000000000000000000000000000000600052604160045260246000fd5b61051d826104d4565b810181811067ffffffffffffffff8211171561053c5761053b6104e5565b5b80604052505050565b600061054f6102e1565b905061055b8282610514565b919050565b600067ffffffffffffffff82111561057b5761057a6104e5565b5b610584826104d4565b9050602081019050919050565b82818337600083830152505050565b60006105b36105ae84610560565b610545565b9050828152602081018484840111156105cf576105ce6104cf565b5b6105da848285610591565b509392505050565b600082601f8301126105f7576105f66104ca565b5b81356106078482602086016105a0565b91505092915050565b600080600060608486031215610629576106286102eb565b5b6000610637868287016104b5565b935050602084013567ffffffffffffffff811115610658576106576102f0565b5b610664868287016105e2565b925050604061067586828701610316565b9150509250925092565b61068881610494565b82525050565b600081519050919050565b600082825260208201905092915050565b60005b838110156106c85780820151818401526020810190506106ad565b60008484015250505050565b60006106df8261068e565b6106e98185610699565b93506106f98185602086016106aa565b610702816104d4565b840191505092915050565b610716816102f5565b82525050565b600060a082019050610731600083018861038a565b61073e602083018761067f565b818103604083015261075081866106d4565b905061075f606083018561070d565b61076c608083018461038a565b9695505050505050565b600060808201905061078b600083018761038a565b610798602083018661038a565b6107a5604083018561067f565b6107b2606083018461070d565b9594505050505056fe608060405234801561001057600080fd5b50604051611385380380611385833981810160405281019061003291906103bf565b600073ffffffffffffffffffffffffffffffffffffffff168573ffffffffffffffffffffffffffffffffffffffff16036100a1576040517f08c379a0000000000000000000000000000000000000000000000000000000008152600401610098906104b3565b60405180910390fd5b846000806101000a81548173ffffffffffffffffffffffffffffffffffffffff021916908373ffffffffffffffffffffffffffffffffffffffff1602179055508360018190555082600290816100f791906106ea565b508160038190555060006004819055508073ffffffffffffffffffffffffffffffffffffffff16638cb35ba9306001546040518363ffffffff1660e01b81526004016101449291906107da565b600060405180830381600087803b15801561015e57600080fd5b505af1158015610172573d6000803e3d6000fd5b505050505050505050610803565b6000604051905090565b600080fd5b600080fd5b600073ffffffffffffffffffffffffffffffffffffffff82169050919050565b60006101bf82610194565b9050919050565b6101cf816101b4565b81146101da57600080fd5b50565b6000815190506101ec816101c6565b92915050565b6000819050919050565b610205816101f2565b811461021057600080fd5b50565b600081519050610222816101fc565b92915050565b600080fd5b600080fd5b6000601f19601f8301169050919050565b7f4e487b7100000000000000000000000000000000000000000000000000000000600052604160045260246000fd5b61027b82610232565b810181811067ffffffffffffffff8211171561029a57610299610243565b5b80604052505050565b60006102ad610180565b90506102b98282610272565b919050565b600067ffffffffffffffff8211156102d9576102d8610243565b5b6102e282610232565b9050602081019050919050565b60005b8381101561030d5780820151818401526020810190506102f2565b60008484015250505050565b600061032c610327846102be565b6102a3565b9050828152602081018484840111156103485761034761022d565b5b6103538482856102ef565b509392505050565b600082601f8301126103705761036f610228565b5b8151610380848260208601610319565b91505092915050565b6000819050919050565b61039c81610389565b81146103a757600080fd5b50565b6000815190506103b981610393565b92915050565b600080600080600060a086880312156103db576103da61018a565b5b60006103e9888289016101dd565b95505060206103fa88828901610213565b945050604086015167ffffffffffffffff81111561041b5761041a61018f565b5b6104278882890161035b565b9350506060610438888289016103aa565b9250506080610449888289016101dd565b9150509295509295909350565b600082825260208201905092915050565b7f596f75206d7573742070726f7669646520616e206f776e657200000000000000600082015250565b600061049d601983610456565b91506104a882610467565b602082019050919050565b600060208201905081810360008301526104cc81610490565b9050919050565b600081519050919050565b7f4e487b7100000000000000000000000000000000000000000000000000000000600052602260045260246000fd5b6000600282049050600182168061052557607f821691505b602082108103610538576105376104de565b5b50919050565b60008190508160005260206000209050919050565b60006020601f8301049050919050565b600082821b905092915050565b6000600883026105a07fffffffffffffffffffffffffffffffffffffffffffffffffffffffffffffffff82610563565b6105aa8683610563565b95508019841693508086168417925050509392505050565b6000819050919050565b60006105e76105e26105dd84610389565b6105c2565b610389565b9050919050565b6000819050919050565b610601836105cc565b61061561060d826105ee565b848454610570565b825550505050565b600090565b61062a61061d565b6106358184846105f8565b505050565b5b818110156106595761064e600082610622565b60018101905061063b565b5050565b601f82111561069e5761066f8161053e565b61067884610553565b81016020851015610687578190505b61069b61069385610553565b83018261063a565b50505b505050565b600082821c905092915050565b60006106c1600019846008026106a3565b1980831691505092915050565b60006106da83836106b0565b9150826002028217905092915050565b6106f3826104d3565b67ffffffffffffffff81111561070c5761070b610243565b5b610716825461050d565b61072182828561065d565b600060209050601f8311600181146107545760008415610742578287015190505b61074c85826106ce565b8655506107b4565b601f1984166107628661053e565b60005b8281101561078a57848901518255600182019150602085019450602081019050610765565b868310156107a757848901516107a3601f8916826106b0565b8355505b6001600288020188555050505b505050505050565b6107c5816101b4565b82525050565b6107d4816101f2565b82525050565b60006040820190506107ef60008301856107bc565b6107fc60208301846107cb565b9392505050565b610b73806108126000396000f3fe6080604052600436106100865760003560e01c80632b85ed9c116100595780632b85ed9c1461013557806364edfbf01461016057806380007e831461016a5780638da5cb5b14610195578063a035b1fe146101c057610086565b806309bd5a601461008b578063105535b6146100b657806311db3126146100e15780631a3460441461010a575b600080fd5b34801561009757600080fd5b506100a06101eb565b6040516100ad9190610619565b60405180910390f35b3480156100c257600080fd5b506100cb6101f1565b6040516100d891906106c4565b60405180910390f35b3480156100ed57600080fd5b5061010860048036038101906101039190610723565b61027f565b005b34801561011657600080fd5b5061011f6102ff565b60405161012c919061075f565b60405180910390f35b34801561014157600080fd5b5061014a610312565b6040516101579190610793565b60405180910390f35b610168610318565b005b34801561017657600080fd5b5061017f6105c3565b60405161018c919061075f565b60405180910390f35b3480156101a157600080fd5b506101aa6105d6565b6040516101b791906107ef565b60405180910390f35b3480156101cc57600080fd5b506101d56105fa565b6040516101e29190610793565b60405180910390f35b60015481565b600280546101fe90610839565b80601f016020809104026020016040519081016040528092919081815260200182805461022a90610839565b80156102775780601f1061024c57610100808354040283529160200191610277565b820191906000526020600020905b81548152906001019060200180831161025a57829003601f168201915b505050505081565b6001600560006101000a81548160ff02191690831515021790555080600560016101000a81548160ff0219169083151502179055507ffbd298ad262060c542dc22d25f1d860e7854185a3f08eeadcb168c50e8b8327b30600560019054906101000a900460ff166040516102f492919061086a565b60405180910390a150565b600560019054906101000a900460ff1681565b60045481565b60008054906101000a900473ffffffffffffffffffffffffffffffffffffffff1673ffffffffffffffffffffffffffffffffffffffff163373ffffffffffffffffffffffffffffffffffffffff16036103a6576040517f08c379a000000000000000000000000000000000000000000000000000000000815260040161039d906108df565b60405180910390fd5b6003543410156103eb576040517f08c379a00000000000000000000000000000000000000000000000000000000081526004016103e29061094b565b60405180910390fd5b3273ffffffffffffffffffffffffffffffffffffffff163373ffffffffffffffffffffffffffffffffffffffff1614610459576040517f08c379a0000000000000000000000000000000000000000000000000000000008152600401610450906109dd565b60405180910390fd5b600560009054906101000a900460ff166104a8576040517f08c379a000000000000000000000000000000000000000000000000000000000815260040161049f90610a49565b60405180910390fd5b600460008154809291906104bb90610a98565b919050555060035434111561051f573373ffffffffffffffffffffffffffffffffffffffff166108fc600354346104f29190610ae0565b9081150290604051600060405180830381858888f1935050505015801561051d573d6000803e3d6000fd5b505b60008054906101000a900473ffffffffffffffffffffffffffffffffffffffff1673ffffffffffffffffffffffffffffffffffffffff166108fc6003549081150290604051600060405180830381858888f19350505050158015610587573d6000803e3d6000fd5b507f6551c004ddd37a472463d608be57c2de820241aecc8aa52249935b82896d301830336040516105b9929190610b14565b60405180910390a1565b600560009054906101000a900460ff1681565b60008054906101000a900473ffffffffffffffffffffffffffffffffffffffff1681565b60035481565b6000819050919050565b61061381610600565b82525050565b600060208201905061062e600083018461060a565b92915050565b600081519050919050565b600082825260208201905092915050565b60005b8381101561066e578082015181840152602081019050610653565b60008484015250505050565b6000601f19601f8301169050919050565b600061069682610634565b6106a0818561063f565b93506106b0818560208601610650565b6106b98161067a565b840191505092915050565b600060208201905081810360008301526106de818461068b565b905092915050565b600080fd5b60008115159050919050565b610700816106eb565b811461070b57600080fd5b50565b60008135905061071d816106f7565b92915050565b600060208284031215610739576107386106e6565b5b60006107478482850161070e565b91505092915050565b610759816106eb565b82525050565b60006020820190506107746000830184610750565b92915050565b6000819050919050565b61078d8161077a565b82525050565b60006020820190506107a86000830184610784565b92915050565b600073ffffffffffffffffffffffffffffffffffffffff82169050919050565b60006107d9826107ae565b9050919050565b6107e9816107ce565b82525050565b600060208201905061080460008301846107e0565b92915050565b7f4e487b7100000000000000000000000000000000000000000000000000000000600052602260045260246000fd5b6000600282049050600182168061085157607f821691505b6020821081036108645761086361080a565b5b50919050565b600060408201905061087f60008301856107e0565b61088c6020830184610750565b9392505050565b7f596f752063616e27742062757920796f7572206974656d730000000000000000600082015250565b60006108c960188361063f565b91506108d482610893565b602082019050919050565b600060208201905081810360008301526108f8816108bc565b9050919050565b7f596f75206d75737420706179206174206c656173742074686520707269636500600082015250565b6000610935601f8361063f565b9150610940826108ff565b602082019050919050565b6000602082019050818103600083015261096481610928565b9050919050565b7f436f6e74726163747320617265206e6f7420616c6c6f77656420746f2070757260008201527f6368617365000000000000000000000000000000000000000000000000000000602082015250565b60006109c760258361063f565b91506109d28261096b565b604082019050919050565b600060208201905081810360008301526109f6816109ba565b9050919050565b7f4974656d206d7573742062652076657269666965640000000000000000000000600082015250565b6000610a3360158361063f565b9150610a3e826109fd565b602082019050919050565b60006020820190508181036000830152610a6281610a26565b9050919050565b7f4e487b7100000000000000000000000000000000000000000000000000000000600052601160045260246000fd5b6000610aa38261077a565b91507fffffffffffffffffffffffffffffffffffffffffffffffffffffffffffffffff8203610ad557610ad4610a69565b5b600182019050919050565b6000610aeb8261077a565b9150610af68361077a565b9250828203905081811115610b0e57610b0d610a69565b5b92915050565b6000604082019050610b2960008301856107e0565b610b3660208301846107e0565b939250505056fea26469706673582212207abb3230ce170009d72fab58849e5552ef62389ff247e27d53e500ae41333ed064736f6c634300081c0033a264697066735822122036121232dca188614abac82e6a5e101edbf44b8e454edc3810714621b0c027e464736f6c634300081c0033",
  "linkReferences": {},
  "deployedLinkReferences": {}
}